:020000040800F2
:10000000284F0020A90100086F1200087D11000888
:100010006D12000813030008F1150008000000002D
:100020000000000000000000000000007312000843
:100030004B0300080000000071120008D9120008EC
:10004000C3010008C3010008C3010008C301000880
:10005000C3010008C3010008C3010008C301000870
:10006000C3010008C3010008C3010008150300080C
:10007000C3010008C3010008C3010008C301000850
:10008000C3010008C3010008C3010008C301000840
:10009000C3010008C3010008C3010008C301000830
:1000A000C3010008C3010008C3010008C301000820
:1000B000C3010008C3010008C3010008C301000810
:1000C000C3010008C3010008C3010008C301000800
:1000D000C3010008C3010008C3010008C3010008F0
:1000E000C3010008C3010008C301000800F002F8C2
:1000F00000F04AF80AA090E8000C82448344AAF178
:100100000107DA4501D100F03FF8AFF2090EBAE875
:100110000F0013F0010F18BFFB1A43F0010318473B
:1001200030190000501900000A4410F8014B14F077
:100130000F0508BF10F8015B240908BF10F8014B38
:100140006D1E05D010F8013B6D1E01F8013BF9D181
:10015000641E03D0641E01F8015BFBD19142E4D31D
:10016000704700000023002400250026103A28BF15
:1001700078C1FBD8520728BF30C148BF0B60704719
:100180001FB51FBD10B510BD00F08EF81146FFF76A
:10019000F7FF01F053FA00F0ACF803B4FFF7F2FFF9
:1001A00003BC00F0AFF80000094880470948004749
:1001B000FEE7FEE7FEE7FEE7FEE7FEE7FEE7FEE717
:1001C000FEE7FEE704480549054A064B7047000074
:1001D0003B130008ED00000828430020284F0020B2
:1001E000284700202847002010B5203AC0F00B8097
:1001F000B1E81850203AA0E81850B1E81850A0E82B
:100200001850BFF4F5AF5FEA027C24BFB1E8185084
:10021000A0E8185044BF18C918C0BDE810405FEAF4
:10022000827C24BF51F8043B40F8043B08BF704770
:10023000D20728BF31F8023B48BF11F8012B28BF75
:1002400020F8023B48BF00F8012B70474FF0000236
:1002500000B5134694469646203922BFA0E80C50BC
:10026000A0E80C50B1F12001BFF4F7AF090728BF97
:10027000A0E80C5048BF0CC05DF804EB890028BF13
:1002800040F8042B08BF704748BF20F8022B11F03C
:10029000804F18BF00F8012B7047704770477047B8
:1002A00000487047C44200207546FFF7F9FFAE468C
:1002B00005006946534620F00700854618B020B572
:1002C000FFF780FFBDE820404FF000064FF0000729
:1002D0004FF000084FF0000B21F00701AC46ACE8EE
:1002E000C009ACE8C009ACE8C009ACE8C0098D465B
:1002F000704710B50446AFF300802046BDE81040BB
:10030000FFF74BBF01491820ABBEFEE726000200F5
:100310007047FEE7014800F031B80000800300207C
:1003200030B590F840500124AC40C56B6C60046857
:1003300063604368102B036803D099600068C26053
:1003400030BD9A600068C16030BD704710B401F0E4
:100350000F0141F3000400F00F03641C02D003EB13
:10036000011003E008011030C01A401EC1B210BCD9
:10037000104601F097B972B6FEE700002DE9F05F74
:10038000C16B0C6801680B68D0F840C0042202FA07
:100390000CF2494DDFF824A1494E4A4FDFF828B14D
:1003A000DFF828E122422CD05A072AD50A689206A3
:1003B00003D40A6822F004020A600168A94201D14C
:1003C000042219E0514501D1402215E0B14202D189
:1003D0004FF4806210E0B94202D14FF480420BE04A
:1003E000594502D14FF4802206E0714502D14FF405
:1003F000800201E04FF080622F4908394A60C16AEB
:100400003BE04FF0020808FA0CF818EA040F4FF02E
:1004100000094FF0010235D05FEA837832D50B68CE
:100420009B0605D40B6823F00A030B6080F821209B
:100430000168A94201D1022219E0514501D12022CF
:1004400015E0B14202D14FF4007210E0B94202D17E
:100450004FF400520BE0594502D14FF4003206E050
:10046000714502D14FF4001201E04FF000721249C1
:1004700008394A6080F82090816A00291AD0BDE8C6
:10048000F05F0847082505FA0CF5254212D01B0736
:1004900010D50B6823F00E030B6090F84010C36B6F
:1004A00002FA01F15960826380F8212080F82090DF
:1004B000016BE2E7BDE8F09F080002401C0002402B
:1004C0003000024044000240580002406C000240EC
:1004D00030B528B308C8134914221944B1FBF2F10E
:1004E0008900C16310498163022141771A6843F68C
:1004F000F0718A43D0E900142143D0E902452C432E
:100500002143046921434469214384692143114300
:10051000196000214163012242770177084630BD0E
:10052000012030BDF8FFFDBF0000024070B5044659
:1005300090F82000002501280CD0012084F820002C
:1005400094F821600020012E06D084F820000225B6
:10055000284670BD022070BD022684F82160A06389
:100560002068066826F0010606602046FFF7D8FEE0
:10057000E06A00282068016802D041F00E0106E020
:1005800021F0040101602068016841F00A01016066
:100590002068016841F001010160D9E770B50446A7
:1005A00000F0FEF80546601C02D0044800780444C0
:1005B00000F0F6F8401BA042FAD370BD0000002006
:1005C0002DE9F84FDFF8B891002409F1040A0AF187
:1005D000040B23460F270BF1040EC9E00125A540AB
:1005E0002A40AA427DD1674ED1F804C0ACEB060880
:1005F000B44532D014DCBCF1030F3AD009DCBCF1B5
:10060000000F2AD0BCF1010F1CD0BCF1020F31D178
:100610001DE0BCF1110F17D0BCF1120F2AD119E067
:10062000B8F5881F19D006DCB8F5803F15D0B8F5AD
:10063000801F1FD111E0B8F5001F0ED0B8F5041FC0
:1006400018D10AE0CB6815E0CB681B1D12E0CB681F
:1006500008330FE0CB680C330CE08B682BB1012B17
:100660004FF0080303D0456104E0042302E0056174
:1006700000E00023FF2A01D8064601E000F104064D
:100680004FEA840501D9A5F12005D6F8008007FAC4
:1006900005FC28EA0C0803FA05F548EA0508C6F83F
:1006A00000804D68ED0062D5374DAE6946F0010619
:1006B000AE61AD6924F0030605F001050095334DE8
:1006C00006EB050CDCF80850A607360F07FA06F80B
:1006D00025EA0805DFF8B880404503D14FF000084F
:1006E00017E044E0DFF8AC80404502D14FF001084C
:1006F0000FE0DFF8A480404502D14FF0020808E087
:10070000DFF89880404502D14FF0030801E04FF038
:10071000040808FA06F848EA0508CCF808804D688D
:10072000D9F80060ED034D4601D5164300E096432D
:100730002E604D68DAF80060AD03554601D51643CA
:1007400000E096432E604D68DBF80060ED025D46E8
:1007500001D5164300E096432E604D68DEF8006038
:10076000AD02754601D5164300E096432E60641C29
:100770000D682A46E5407FF431AFBDE8F88F0000F0
:100780000004014000001110001002400000014070
:1007900000080140000C014000100140001401401D
:1007A000014880687047000000000020024881680E
:1007B000027811448160704700000020074810B59E
:1007C000016841F010010160032000F075F80F206E
:1007D00000F006F800F024F8002010BD00200240D0
:1007E00070B50D4D04464FF47A712878B1FBF0F0E6
:1007F0000A490968B1FBF0F000F0CCFA48B9102CB6
:1008000007D200222146501E00F036F800206C600E
:1008100070BD012070BD0000000000200C00002011
:100820000C4808B5816941F001018161816901F0DD
:1008300001010091C16941F08051C161C06900F0BE
:10084000805000900448416821F0E06141F000715F
:10085000416008BD0010024000000140002809DB93
:1008600000F01F02012191404009800000F1E020CA
:10087000C0F8001170470000F0B40E4B1B680C4626
:10088000C3F30223C3F10705042D00D90425191D64
:10089000072901D2002300E0DB1E012606FA05F13C
:1008A000491E214099409E40761E16403143F0BCBF
:1008B00000F0B4BE0CED00E0064900F00702086845
:1008C0004FF6FF03184040EA0220034A1043086035
:1008D000704700000CED00E00000FA052DE9F0473C
:1008E0000F46050061D0434E306800F00700B84263
:1008F00009D2306820F0070038433060306800F0DB
:100900000700B84251D128683B4C810712D54007F7
:1009100003D5606840F4E06060602878000703D584
:10092000606840F4605060606068A96820F0F00082
:10093000084360602878C00728D06868012810D074
:100940002168022810D0890700292EDA616821F079
:10095000030101436160FFF723FF804641F28839BC
:100960000DE021688903EFE78901EDE7FFF718FF44
:10097000A0EB0801494502D90320BDE8F087606873
:10098000696800F00C00B0EB810FEFD1306800F027
:100990000700B8420BD9306820F0070038433060B8
:1009A000306800F00700B84201D00120E5E7287860
:1009B000400705D56068E96820F4E060084360609E
:1009C0002878000706D56068296920F4605040EA5D
:1009D000C100606000F018F86168084AC1F30311B3
:1009E000515CC8400649086006480068FFF7F8FEF9
:1009F0000020C2E70020024000100240401A000818
:100A00000C0000200400002012A185B00FC98DE861
:100A10000F0014A0144A006804905168134801F0B4
:100A20000C03042B10D0082B0ED1C1F38343C90350
:100A30001DF803000AD5516804AAC1F34041515C76
:100A40000A4A5043B0FBF1F005B0704708494843EB
:100A5000FAE7000002030405060708090A0B0C0D5B
:100A60000E0F1010010200000010024000127A0068
:100A700000093D002DE9F84F040070D02078C04DEA
:100A8000C00749D06868C0F38100012807D06868B2
:100A9000C0F38100022809D16868C00306D5286820
:100AA000800339D560680028E7D035E06068B0F58C
:100AB000803F0BD010B1B0F5A02F11D0286820F4E2
:100AC00080302860286820F4802002E0286840F404
:100AD00080302860606890B1FFF762FE06460AE049
:100AE000286840F480202860F0E700BFFFF758FE38
:100AF000801B642873D828688003F7D50CE0FFF7C3
:100B00004FFE064605E000BFFFF74AFE801B642843
:100B1000F0D828688003F7D420789A4E80074FF0E9
:100B200001094FF0000839D5686810F00C0F07D0A4
:100B30006868C0F38100022809D16868C00306D440
:100B40002868800714D52069012808D110E02069A1
:100B5000B0B1C6F80090FFF723FE074605E00AE1B2
:100B6000FFF71EFEC01B0228C4D828688007F7D5EF
:100B70002868616920F0F80040EAC10028600DE0B3
:100B8000C6F80080FFF70CFE074604E0FFF708FEFA
:100B9000C01B022823D828688007F7D420780007D4
:100BA0002CD57948A169D9B1C0F80090FFF7F8FDBC
:100BB000074604E0FFF7F4FDC01B02280FD8686A5F
:100BC0008007F7D571484FF4FA510068B0FBF1F097
:100BD000009000BF0098411E0091FAD20EE080E024
:100BE000C0F80080FFF7DCFD074604E0FFF7D8FD02
:100BF000C01B022875D8686A8007F7D420784007A0
:100C000060D5E8690027C00008D4E86940F080504A
:100C1000E861E869012700F0805000905C480168B5
:100C2000C90513D40168834641F480710160FFF760
:100C3000B7FD824606E000BFFFF7B2FDA0EB0A0059
:100C400064284ED8DBF80000C005F5D5E06801281F
:100C50000AD008B1052813D0286A20F001002862C4
:100C6000286A20F0040002E0286A40F001002862AF
:100C7000E06841F2883B98B1FFF792FD82460BE0B5
:100C8000286A40F004002862EEE700BFFFF788FD05
:100C9000A0EB0A0159455AD8286A8007F6D50CE01E
:100CA000FFF77EFD824605E0FFF77AFDA0EB0A0123
:100CB00059454CD8286A8007F6D41FB1E86920F05E
:100CC0008050E861E06988B36968C1F38101022955
:100CD00044D00228C6F8608004D0FFF761FD0446C6
:100CE00038E034E0FFF75CFD074604E0FFF758FD0D
:100CF000C01B02282BD828688001F7D4206AB0F5E1
:100D0000803F05D16868A16820F40030084368601E
:100D1000D4E908010843696821F474110843686044
:100D2000C6F86090FFF73CFD044606E025E000BFF2
:100D3000FFF736FD001B022809D828688001F7D587
:100D40001BE000BFFFF72CFD001B022802D9032087
:100D5000BDE8F88F28688001F4D40EE00128F7D0B0
:100D60006868226A00F48031914204D1616A00F41B
:100D70007010884201D00120EAE70020E8E7000077
:100D80000010024000004242800442420C00002059
:100D90000070004010B5401EB0F1807F01D30120EB
:100DA00010BD4FF0E02460610F21601700F036FCA9
:100DB0000020A06107202061002010BD70B590F8D0
:100DC0003C20012A26D0012480F83C40022280F8F1
:100DD0003D2003685A689D6822F070060A68324315
:100DE0005A600D4B02689A4208D0B2F1804F05D08C
:100DF0000A4B9A4202D00A4B9A4204D1496825F024
:100E000080031943916080F83D40002180F83C1038
:100E1000084670BD022070BD002C01400004004057
:100E2000000800407047000000B585B00021009127
:100E300001910291039100680B49884211D10B483E
:100E4000816941F0080181618069694600F008000C
:100E50000490402000900220019003900448FFF786
:100E6000AFFB05B000BD00000008004000100240CC
:100E7000000C014070B5044690F83C000D46012876
:100E80000AD0012084F83C0042B1042A18D0082A74
:100E90002AD00C2A4DD139E0022070BD206800F024
:100EA00005FB2068816941F0080181612068816942
:100EB00021F004018161206881692A69114311E0F0
:100EC000206800F01BFB2068816941F400618161AA
:100ED0002068816921F480618161206881692A69C3
:100EE00041EA0221816124E0206800F033FB2068A0
:100EF000C16941F00801C1612068C16921F00401A4
:100F0000C1612068C1692A69114311E0206800F0BD
:100F10004DFB2068C16941F40061C1612068C1696D
:100F200021F48061C1612068C1692A6941EA022116
:100F3000C161002084F83C0070BD10B5040003D0EE
:100F400094F83D0010B107E0012010BD002084F8A6
:100F50003C00204600F01EF8022084F83D00211DD0
:100F6000206800F0EBF9012084F8460084F83E0088
:100F700084F83F0084F8400084F8410084F842007F
:100F800084F8430084F8440084F8450084F83D0068
:100F9000002010BD38B505460068124988421FD1AF
:100FA0001148C16941F00401C161C069104C00F0F1
:100FB000040000900D482060102060600020802117
:100FC000C4E90201490021618900C4E90510E0611A
:100FD0002046FFF77DFA08B1FFF7CDF96C62656234
:100FE00038BD000000080040001002400800024028
:100FF00080030020704770472DE9F04117460D002F
:1010000004460CD0042D11D0082D16D094F84100C0
:10101000022819D094F84100012818D09AE094F8D9
:101020003E00022810D094F83E00F5E794F83F0007
:10103000022809D094F83F00EEE794F84000022817
:1010400002D094F84000E7E70220BDE8F0810FB934
:10105000002B7FD14349444E444A022045B1042D20
:1010600016D0082D24D084F841000C2D3AD164E02C
:1010700084F83E00606A8162606A3946C662606ACE
:1010800002632268606A3432FFF750FAF0BB1FE057
:1010900084F83F00A06A8162A06A3946C662A06AED
:1010A00002632268A06A3832FFF740FA70BB14E08E
:1010B00084F84000E06A8162E06A3946C662E06A0C
:1010C00002632268E06A3C32FFF730FAF0B92FE0A1
:1010D0002068C16841F4007103E02068C16841F4F0
:1010E0008061C16001222946206800F05DF9204935
:1010F0002068884203D1426C42F400424264206876
:1011000088420AD0B0F1804F07D000E022E01949B0
:10111000884202D01849884204D1816801F0070151
:10112000062903D0016841F00101016000208CE72D
:101130002068C16841F40061D3E7206B8162206BB5
:101140003946C662206B02632268206B4032FFF78B
:10115000EDF908B1012078E72068C16841F48051B9
:10116000BFE70000C3130008211400085914000849
:10117000002C01400004004000080040FEE7000091
:1011800010B50024A1B2034800F08CFA641CFF2CB7
:10119000F8DD10BD10000020094808B5416941F094
:1011A000010141614069002200F0010000901146F8
:1011B0000B20FFF761FBBDE808400B20FFF74EBB9B
:1011C000001002400D4808B5816941F0200181619D
:1011D000816901F020010091816941F00401816180
:1011E000816901F004010091816941F00801816188
:1011F000806900F00800009008BD00000010024067
:1012000010B58AB0002407941C2168460894FFF7A3
:101210001DF815481349C0E900145921C0E90241DD
:1012200004618461FFF789FE08B1FFF7A4F8079411
:1012300007A90D480894FFF7C1FD08B1FFF79BF817
:101240006020CDE900040294002269460648049417
:10125000FFF710FE08B1FFF78EF80348FFF7E4FD33
:101260000AB010BD0008004038030020FEE7FEE78A
:10127000704770472DE9FF4F81B00020012691464D
:101280000C46DFF850A04FF6FF7B571D01F1030815
:10129000009015E04D460FE001993AF811003042F8
:1012A00001D0049A00E06A4629462046FFF74EF82E
:1012B0006D1C0BEA4606EDB2BD42EDD3641CE4B2F0
:1012C0004445E7D34FF4807000F094F905B0BDE8D1
:1012D000F08F000018030020FFF768BA30B58FB018
:1012E00028216846FEF7B2FF14210AA8FEF7AEFFD8
:1012F00001210804CDE90010002402940225049184
:10130000CDE907504FF4E01009906846FFF7B2FBB3
:1013100008B172B6FEE70F20CDE90A054FF48060F0
:10132000CDE90C4002210AA80E94FFF7D7FA002855
:1013300001D072B6FEE70FB030BD7047F0B502685D
:10134000164B174C174D4FF08047984205D0B842C6
:1013500003D0A04201D0A84203D122F070064A680F
:101360003243984205D0B84203D0A04201D0A842EF
:1013700003D122F44074CA6822434C6922F08002EF
:10138000224302608A68C2620A688262984201D17E
:101390000969016301214161F0BD0000002C014099
:1013A000000400400008004010B501F01F030121B7
:1013B000046A99408C430462016A9A4011430162B5
:1013C00010BD10B5446A0121626A824205D12177BD
:1013D0008069F8B984F83E101CE0A26A824206D106
:1013E000022222778069A8B984F83F1012E0E26AED
:1013F000824206D104222277806958B984F84010CD
:1014000008E0226B824205D108222277806908B960
:1014100084F841102046FFF7EDFD0020207710BD35
:1014200010B5446A616A814201D101200DE0A16AD0
:10143000814201D1022008E0E16A814201D1042009
:1014400003E0216B814201D1082020772046FFF77D
:10145000D2FD0020207710BD10B5446A0121626AD8
:10146000824203D1217784F83E1019E0A26A8242B9
:1014700004D10220207784F83F1011E0E26A824212
:1014800004D10420207784F8401009E0226B8242C6
:1014900004D10820207784F8411001E084F83D1041
:1014A0002046FFF7BFFC0020207710BD30B5026A50
:1014B00022F001020262026A4368846924F0730523
:1014C0000C682C4322F002058A682A430A4DA84280
:1014D0000BD122F00805CA6823F440732A434D69F2
:1014E00022F004021D438B692B43436084614968E9
:1014F0004163026230BD0000002C014030B5026A39
:1015000022F010020262026A436884690D6824F4C2
:10151000E64444EA05248D6822F0200242EA0512DE
:101520000B4DA8420ED1CD6822F0800242EA05128E
:101530004D6923F4406343EA85038D6922F040023C
:1015400043EA85034360846149688163026230BD78
:10155000002C014030B5026A22F480720262036AF4
:101560004268C46923F4007324F073050C682C43AB
:101570008D6843EA05230C4DA8420ED1CD6823F4B3
:10158000006343EA05234D6922F4405242EA051202
:101590008D6923F4806342EA05124260C4614968A0
:1015A000C163036230BD0000002C014030B5026A07
:1015B00022F480520262046A4268C3690D6823F40F
:1015C000E64343EA05238D6824F4005444EA0534D5
:1015D000064DA84204D14D6922F4804242EA8512A8
:1015E0004260C36149680164046230BD002C01405F
:1015F000FEE7000007494FF4FC534FF4C0500022AF
:1016000021F81020401C9842FAD3024A00210248D7
:10161000FFF7F2BCC4030020380300200907090EBD
:10162000002804DB00F1E02080F80014704700F08F
:101630000F0000F1E02080F8141D7047ADF54C7DDF
:10164000FFF7BCF8FFF74AFEFFF7BCFDFFF7A4FD6C
:10165000FFF7D6FDFFF794FD18221149C6A8FEF743
:10166000C3FD0F4918221831C0A8FEF7BDFD0C4973
:101670004FF4407230316846FEF7B6FD0DF2123479
:101680000022234611461046FFF7F4FD23460022B0
:1016900008210120FFF7EEFD1420FEF77FFFEFE7A2
:1016A0001017000810B5002301EB4101174AC900CB
:1016B00044789C40240601D5322400E0192422F805
:1016C00011405B1C9BB2491C082BF1D3002304780A
:1016D0009C40240601D5322400E0192422F8114050
:1016E0005B1C9BB2491C082BF1D3002384789C40DF
:1016F000240601D5322400E0192422F811405B1C95
:101700009BB2491C082BF1D310BD0000C40300207C
:10171000C80000C88700C8C80000C80000C8C800CA
:1017200000C86D00C8000000640000644B006464E1
:10173000000064000064640000643B00640000007A
:10174000222222222222222222222222212121207E
:101750001F1F201B1C20181A2017192017192019C9
:101760001B201D1E2121212122222222222222226F
:101770002222222021211F21212020201F1C1C2069
:1017800017192115182116182116192116192115B6
:101790001820161820191B201F1F21222222222266
:1017A000212222191E2009171F14161B201517218C
:1017B0001517211518211619211619211619211688
:1017C00018211418201417201A1B2022212122224C
:1017D00021202116181A0612161413172115182184
:1017E000171920181A21171A21161920171920184D
:1017F0001A201719211619201A1B201E1E2121211B
:10180000201C1F1B18131613051A130E1F13182064
:10181000171A21191B21181A201619201719201917
:101820001A201719201618211719201819202020FE
:10183000201E21201F1A1B150A1A100D1D1116211A
:10184000161A2016191E14171D14161E141720160A
:10185000191E14161D1215201417201618201D1EEF
:101860002222222122221F181A1B0F131B0F1320C2
:1018700015181F14171B11131912121B11141D1107
:10188000151911121911121F14172116181F191AE0
:10189000212222212121221A1E1D1115190E111F8C
:1018A00013171A0F12100A0D1310101A12141A0F10
:1018B00012110E0E0F0E0F1C14162014171C1517E4
:1018C00021222221202021191B1C1114180B101D6C
:1018D0001014130C0F06090D0F12141C16151A13F1
:1018E000120F10110D10131B15161E11141B1416B8
:1018F00022222221202021181A1B0F13170A0F1948
:101900000C101712131216171719191E1B181E1B6D
:1019100019191A19191A1A1C16161A0D111C16184B
:101920002222222120202017191A0C11170A0F1A1F
:101930000E121E171821201E201F1D201E1C211FE5
:101940001D22211F21201E1B1113180C111D1B1CF1
:101950002222222120201F1518180A0F180B101DF3
:1019600012161C14151E1C1B222220211E1C211EB7
:101970001C2121201E1A1B180D101A1315202020BF
:101980002222222120201D131618090E16080E1CD3
:101990001014180F111A1312201C191F1C1A1E1ACA
:1019A000191C1516180C101B0F131F1C1D222222A8
:1019B000222222201E1F1C111418080E15080D18B3
:1019C0000D11190E11190C0E1C13131B17161610DE
:1019D0001115090C17090E1E1215211D1E22222297
:1019E0002121211E1B1C1B0E121A0F121910121876
:1019F0000E11190D11190D101A12131B15161A11AB
:101A0000121B11131C11141B0F131F1A1B21212150
:101A10002121211C17191B1114201B1B201B1A1B11
:101A200012141A0F121D13141D15161C151620184A
:101A300019211A1A1C1215190F121F1A1C22212102
:101A4000000000000000000001020304060708096E
:101A5000701A000800000020380300002801000868
:101A6000A01A000838030020F04B000064010008B1
:101A7000420192107324F44850005000808080048A
:101A8000FF30302501FF01FBD0153F7EF143BD5EE5
:101A9000B57E877CB776BF76217CBFFEB7FE00009F
:04000005080000ED02
:00000001FF
